{
    "contractName": "testContract",
    "abi": [
        {
            "inputs": [],
            "stateMutability": "nonpayable",
            "type": "constructor"
        },
        {
            "inputs": [
                {
                    "internalType": "address",
                    "name": "",
                    "type": "address"
                }
            ],
            "name": "accounts",
            "outputs": [
                {
                    "internalType": "uint256",
                    "name": "",
                    "type": "uint256"
                }
            ],
            "stateMutability": "view",
            "type": "function"
        },
        {
            "inputs": [],
            "name": "getAvotes",
            "outputs": [
                {
                    "internalType": "uint256",
                    "name": "",
                    "type": "uint256"
                }
            ],
            "stateMutability": "view",
            "type": "function"
        },
        {
            "inputs": [],
            "name": "getBvotes",
            "outputs": [
                {
                    "internalType": "uint256",
                    "name": "",
                    "type": "uint256"
                }
            ],
            "stateMutability": "view",
            "type": "function"
        },
        {
            "inputs": [],
            "name": "getCvotes",
            "outputs": [
                {
                    "internalType": "uint256",
                    "name": "",
                    "type": "uint256"
                }
            ],
            "stateMutability": "view",
            "type": "function"
        }
    ],
    "bytecode": "608060405234801561001057600080fd5b506000808055600181905560025560ec8061002c6000396000f3fe6080604052348015600f57600080fd5b506004361060465760003560e01c80631f3ee21114604b5780635854e9bb1460635780635e5c06e21460695780639238820f14608c575b600080fd5b60516092565b60408051918252519081900360200190f35b60516098565b605160048036036020811015607d57600080fd5b50356001600160a01b0316609e565b605160b0565b60005490565b60015490565b60036020526000908152604090205481565b6002549056fea264697066735822122072ec7dd797b1af330853be71de5bec042ad1d23b8d92a34fdf41ecac7d2e923964736f6c63430006010033",
    "sourcePath": "c:/Users/vedant/Documents/Projects/Hackinfinity/test.sol",
    "compiler": {
        "name": "solc",
        "version": "0.6.1+commit.e6f7d5a4"
    },
    "functionHashes": {
        "accounts(address)": "5e5c06e2",
        "getAvotes()": "1f3ee211",
        "getBvotes()": "5854e9bb",
        "getCvotes()": "9238820f"
    },
    "gasEstimates": {
        "creation": {
            "codeDepositCost": "47200",
            "executionCost": "15120",
            "totalCost": "62320"
        },
        "external": {
            "accounts(address)": "1146",
            "getAvotes()": "976",
            "getBvotes()": "998",
            "getCvotes()": "1042"
        },
        "internal": {
            "votedA()": "infinite",
            "votedB()": "infinite",
            "votedC()": "infinite"
        }
    }
}